:03000000020E915C
:0C0E9100787FE4F6D8FD758148020ED889
:081535007F367EC7DEFEDFFCFD
:01153D00228B
:1014E4005389F0438901758CED758AFFD2A9D28C9A
:0114F40022D5
:03000B000212D40A
:1012D400C0E0C0D0758CED758AFF0517051305169F
:1012E400E517D394044006751700751401E513D36C
:1012F40094134006751300751801E516D394124033
:0C13040006751600751501D0D0D0E0323F
:101461009001E67401F09001E874FFF09001E074DE
:0F14710001F09001E9F0900262F09001E7F022A3
:1010E200E5186066E4F51820B410900262E0605AD8
:1010F20012143FE4900262F080069002627401F0E2
:1011020020B3109001E7E06041120003E49001E790
:10111200F080069001E77401F020B2109001E9E03E
:101122006028120DF7E49001E9F080069001E9745D
:1011320001F020B50F9001E0E0600F121506E49077
:0B11420001E0F0229001E07401F022B7
:0D1506009001E6E0D3940140037401F0224F
:100DF7009001E6E0640170277402F07521277522DF
:100E07000F7BFF7A0B7970E4FD1211FC7BFF7A0BE5
:100E1700790C7D011211FC7D02AF22AE21805D901D
:100E270001E6E06402702F7F02121076EF64014E34
:100E37009001E670517403F07BFF7A0B7984E4FD2F
:100E47001211FC7BFF7A0B79107D011211FC7D02D8
:100E57007F3E7E1580269001E6E0B403227404F0FD
:100E67007BFF7A0B7984E4FD1211FC7BFF7A0B7907
:100E7700147D011211FC7D027F107E0F020F1D9061
:090E870001E6E0B404037401F07B
:010E9000223F
:10143F009001E6E0B4021A7F02121076BE2708BFB1
:10144F000F05E4FEFF80050FBF00010E7D02120F96
:01145F001D6F
:011460002269
:0100030022DA
:100B0C00373737372737372A2737371E37282537D0
:100B1C0028240F29280C1A290A211A250A211A1E01
:100B2C001E0A2122371E1A1D0A211A2A2A0A2122DC
:100B3C00372A1A1D370B2528250A271E2A242A296D
:100B4C000E21280E280B251D370C2E0C211E1C1DCA
:100B5C00370A24372A3531312A351A1A2A0A3531FF
:100B6C002A0A351A0C240D4037280E293728253728
:100B7C00280C1A2928241A290123252937230E2960
:100B8C0037231303372313042A2834210128342153
:100B9C002937372A293737010C24232337372823C1
:100BAC000B0A2A0D0D0A290A3723180137241801BC
:100BBC00370E1801252724292A24270D0B2E290E40
:100BCC00050A2A40372E0E053723243737370A0BF0
:100BDC000800040E2A13000C3131310E272724276C
:100BEC0031313131FC60DAF266B6BEE0FEF6EE3E33
:100BFC009C7A9E8EFD61DBF367B7BFE1FFF71011A6
:100C0C00BC6E0C700E1CEC2A3ACEE60AB68C7C3804
:100C1C007C6476DA700214091A744600F0C094D021
:0C0C2C00D8F6C680DE2B7D8DDF3B0DED81
:10137D004101E1FF4101E2FF4101E6004101E800C9
:10138D004101E0004101E900410262004101E70035
:0C139D004101E3004101E4004101E500D2
:0B1520009001CF7427F0A37410F0229C
:10131000E4F59DF594F593D280F5C1121461121491
:10132000E412000E1215201211A712152B43C11042
:101330001214F5D2AF120D251210E21214F512009C
:091340000412134943C11080ECB2
:1013F800FFFFFFFFFFFFFFFFFFFFFFFFFFFFFFFFF5
:10140800FFFF0000000000000000000000000000D6
:0414180000000000D0
:0A152B00C2CC7F891214B5D2CC2285
:10149C00E4FEC2CDEF30E004D2938002C293D2CDF1
:0814AC00EFC313FF0EBE08EAB6
:0114B4002215
:09153E00D2CCD2CDC2CC02149C27
:1014F500C2CC7F401214B5D2CCC2CC120C38D2CC9F
:0115050022C3
:1013AA008B468A47894812153EAF051DEF6017AB79
:1013BA00460548E548AA477002054714F912038111
:0913CA00FF12149C80E3D2CC2236
:100C380078227C007D007BFF7A1379F87E007F1292
:100C480012035B78347C007D007BFF7A14790A7E7E
:100C5800007F1212035B9001DCE0900BF093F52209
:100C68009001D4E0900BF093F5239001DDE0900B18
:100C7800F093F5249001D5E0900BF093F5259001C1
:100C8800DEE0900BF093F5269001D6E0900BF09300
:100C9800F5279001DFE0900BF093F5289001D7E05D
:100CA800900BF093F5299001D8E0900BF093F52A7A
:100CB800900C27E493FFF52B9001D9E0900BF0936B
:100CC800F52C8F2D9001DAE0900BF093F52E900C17
:100CD80027E493FFF52F9001DBE0900BF093F530BC
:100CE8008F31E4FFE4F521FEE52125E0F5217422AA
:100CF8002FF8E6FD30E00343210174222FF8EDC3FD
:100D080013F60EBE08E274222FF8A6210FBF10D4E6
:0D0D18007B007A0079227D107FC00213AAB3
:1014B500E4FEC2CDEF30E003D38001C39293EFC3C6
:0814C50013FFD2CD0EBE08EAB0
:0114CD0022FC
:040F1D00AB07AA066E
:100F2100ED25E025E0F5237C037DE812040D74D462
:100F31002523F582E43401F583EFF07C007D64AF75
:100F410003AE0212040D7C007D0A12040D74D52536
:100F510023F582E43401F583EDF07C007D0AAF03D3
:100F6100AE0212040D7C007D0A12040D74D62523F5
:100F7100F582E43401F583EDF0AE02AF037C007D30
:100F81000A12040D74D72523F582E43401F583EDAB
:010F9100F06F
:010F9200223C
:1011FC00ED25E025E0FF120381FE74D42FF582E487
:10120C003401F583EEF090000112039AFE74D52F91
:10121C00F582E43401F583EEF090000212039AFE9D
:10122C0074D62FF582E43401F583EEF090000312AE
:0F123C00039AFE74D72FF582E43401F583EEF0A8
:01124B002280
:02107600AB07C6
:1010780075F004EBA424D4F582E5F03401F583E09F
:10108800FF7E007C037DE81203FBAC06AD0775F01C
:1010980004EBA424D5F582E5F03401F583E075F07E
:1010A80064A42DFDEC35F0FC75F004EBA424D6F512
:1010B80082E5F03401F583E075F00AA42DFFE5F030
:1010C8003CFE75F004EBA424D7F582E5F03401F575
:0910D80083E07C002FFFEC3EFEDA
:0110E10022EC
:101480004462385244623852446238523DCCCCCD2A
:0C14900041700000447F2A3D00000EFA6D
:0100040022D9
:10134900E4F524F523F522F521E5156026E4F515E4
:101359009001E6E0B4011C90014AE0FCA3E0FDA382
:10136900E0FEA3E0FF12020A7B017A0179D4E4FDD1
:031379001206E376
:01137C00224E
:0C06E3008E258F268D278B288A29892AD6
:1006EF00E5277072F52BAE25AF267C007D0A12042C
:1006FF000DAF05E52BFDAB28E52A2403F9E43529D9
:10070F00FAC3E99DF9EA9400FAEF1203C7C3740321
:10071F00952BB52729AE25AF267C007D0A12040D37
:10072F00ED2410FFE52BFDAB28E52A2403F9E43572
:10073F0029FAC3E99DF9EA9400FAEF1203C7AE252F
:10074F00AF267C007D0A12040D8E258F26052BE522
:10075F002B6404709122E527640160030207EBF517
:10076F002BAE25AF267C007D0A12040DAF05E52BBD
:10077F00FDAB28E52A2403F9E43529FAC3E99DF9ED
:10078F00EA9400FAEF1203C7C37403952BB5272918
:10079F00AE25AF267C007D0A12040DED2410FFE577
:1007AF002BFDAB28E52A2403F9E43529FAC3E99D8B
:1007BF00F9EA9400FAEF1203C7AE25AF267C007D4D
:1007CF000A12040D8E258F26052BE52B64037091DD
:1007DF00E526452570030208A80208B2E527640242
:1007EF0060030208C7F52BAE25AF267C007D0A12E9
:1007FF00040DAF05E52BFDAB28E52A2403F9E435FD
:10080F0029FAC3E99DF9EA9400FAEF1203C7C374FA
:10081F0003952BB52729AE25AF267C007D0A120440
:10082F000DED2410FFE52BFDAB28E52A2403F9E499
:10083F003529FAC3E99DF9EA9400FAEF1203C7AE1E
:10084F0025AF267C007D0A12040D8E258F26052BE1
:10085F00E52B64027091E52645257010AB28AA2977
:10086F00A92A90000174371203D98033AE25AF2621
:10087F007C007D0A12040DAB28AA29A92A90000139
:10088F00ED1203D9AE25AF267C007D0A12040D8E22
:10089F00258F26E5264525700AAB28AA29A92A7493
:1008AF00378012AE25AF267C007D0A12040DAB28CF
:1008BF00AA29A92AED0203C7E52764037040F52B87
:1008CF00AE25AF267C007D0A12040DAF05E52BFD8A
:1008DF00AB28E52A2403F9E43529FAC3E99DF9EA9F
:1008EF009400FAEF1203C7AE25AF267C007D0A12E3
:1008FF00040D8E258F26052BE52BB404C322E52787
:10090F0064047040F52BAE25AF267C007D0A1204DF
:10091F000DAF05E52BFDAB28E52A2403F9E43529B6
:10092F00FAC3E99DF9EA9400FAEF1203C7AE25AFB7
:10093F00267C007D0A12040D8E258F26052BE52BB4
:10094F00B403C322E52764057071F52BAE25AF26DE
:10095F007C007D0A12040DAF05E52BFDAB28E52ABF
:10096F002403F9E43529FAC3E99DF9EA9400FAEF73
:10097F001203C7C37407952BB52729AE25AF267C65
:10098F00007D0A12040DED2410FFE52BFDAB28E5C9
:10099F002A2403F9E43529FAC3E99DF9EA9400FA08
:1009AF00EF1203C7AE25AF267C007D0A12040D8E11
:0B09BF00258F26052BE52B64047091AA
:0109CA00220A
:1011A7007FEA1213D37FFA1212BB7FEA1213D37F9F
:1011B700E51212BB7F171213D3E4FF1212BB7F8015
:1011C7001212BB7F401213D37F011212BBE4FF122E
:1011D70013D3E4FF1212BB7F401212BB7F0112131D
:1011E700D37F401212BB7F601212BB7F22120F9374
:0511F7007F2202124CF2
:1013D300EF4480FFD280D281C280E4FEEF30E70485
:1013E300D2828002C282D281C281EF25E0FF0EBE8B
:0413F30008EAC280C2
:0113F70022D3
:10141C00EF54EFFFD280D281C280E4FEEF30E704BC
:10142C00D2828002C282D281C281EF25E0FF0EBE41
:02143C0008EABC
:01143E00228B
:101291008F278E268D258C247F131213D3AF27AE73
:1012A10026AD25AC2478101205AB1212BBAF27AEC8
:0A12B10026AD25AC2478081205AB29
:1012BB00E4FEEF30E704D2828002C282D281C28187
:0812CB00EF25E0FF0EBE08EA6A
:0112D30022F8
:1014CE00E4FFFEEF25E0FFD281C2813083034307A4
:0514DE00010EBE08EE46
:0114E30022E6
:1010080012141C1214CEE48F31F530F52FF52E1280
:1010180014CEE48F35F534F533F5321214CEE48F5F
:1010280039F538F537F536AF35AE34AD33AC3278FF
:10103800081205BEC004C005C006C007AF31AE30F7
:10104800AD2FAC2E78101205BED003D002D001D03F
:1010580000EF2BFFEE3AFEED39FDEC38FCEF2539B9
:0D106800FFEE3538FEED3537FDEC3536FC7A
:011075002258
:02114D008F28E9
:10114F00E4F52DF52CF52BF52AF5291214CEEF2009
:10115F00E0077F4112141C80F2AF28121008E52D12
:10116F002FF52DE52C3EF52CE52B3DF52BE52A3CF7
:10117F00F52A1215350529E529C3940A40CDAF2D5F
:10118F00AE2CAD2BAC2AE47B0AFAF9F81204ED8FE2
:07119F002D8E2C8D2B8C2AF4
:0111A6002226
:020F93008F21AC
:100F950012114D1212917F161213D3AF27AE26AD43
:100FA50025AC2478041205ABEF540FFF1212BBE4F5
:100FB500F522F5231215350523E52370020522C315
:100FC5009490E522940140ECAF2112114DAB27AA74
:100FD50026A925A824D312059A5027AF27AE26ADFA
:100FE50025AC2412057F1212917F161213D3AF2759
:100FF500AE26AD25AC2478041205ABEF540FFF12D5
:0210050012BB1C
:0110070022C6
:02124C00AB07EE
:10124E00E4F524F523F522F521FEFDFCAF03121182
:10125E004DA804A905AA06AB0712046212057F78F1
:10126E00081205ABE48F248E23F522F5217F0E1292
:10127E0013D3AF24AE23AD22AC211212B6E524FF58
:03128E000212BB8E
:100D2500E4F524F523F522F521F528F527F526F533
:100D350025E5147003020DF6E4F5147F4112141C29
:100D45001214CEEF20E003020DF67F221210088F59
:100D5500248E238D228C219001E3E075F004A424D8
:100D6500EAF582E5F03401F5831206559001E3E0DA
:100D750004F0E0D39409404BE4F07B0275F004EBFA
:100D8500A424EAF582E5F03401F583E0FCA3E0FD57
:100D9500A3E0FEA3E02528F528EE3527F527ED3558
:100DA50026F526EC3525F5250BBB08D0E47B06FAA0
:100DB500F9F8AF28AE27AD26AC251204ED9001B4A5
:100DC5001206559001B4E0FCA3E0FDA3E0FEA3E00C
:100DD500FFE41201CC7BE57AD07992783F120026A8
:100DE5007B007A40791C784612012F90014A120641
:010DF50055A8
:010DF60022DA
:0A09CB008B088A09890A8C0B8D0C39
:1009D500E4F50DF50EF50FF510C3E510950CE50FD3
:1009E500950B4003020B0B850B0D850C0ED3E50E05
:1009F5009510E50D950F5003020AFDE50E24FFFF46
:100A0500E50D34FFFEEF7802C333CE33CED8F9AB14
:100A150008AA09A90AF5828E831205D1C004C0056A
:100A2500C006C007E50EAE0D7802C333CE33CED86F
:100A3500F9AB08AA09A90AF5828E83120625D00703
:100A4500D006D005D004C312059A4003020AEFE58B
:100A55000EAE0D7802C333CE33CED8F9AB08AA0952
:100A6500A90AF5828E831205D18E118F12E50E2407
:100A7500FFFFE50D34FFFEEF7802C333CE33CED84A
:100A8500F9F5828E831205D1C004C005C006C007E2
:100A9500E50EAE0D7802C333CE33CED8F9AB08AA36
:100AA50009A90AF5828E83D007D006D005D0041295
:100AB5000601AE11AF12E4FCFDC004C005C006C0BE
:100AC50007E50E24FFFFE50D34FFFEEF7802C33383
:100AD500CE33CED8F9AB08AA09A90AF5828E83D000
:100AE50007D006D005D004120601E50E150E6003E9
:100AF5000209F2150D0209F20510E510600302095D
:060B0500DE050F0209DE0F
:010B0B0022C7
:10000E0075985075D7C075D6FD758E14438E01D276
:04001E00ACD2AF228F
:091547002000FDD200EFF599220D
:03002300021513B0
:0D151300309904C299C200309802C298328B
:10002600EC4D6011E8497017ED33EC3304600DE4D4
:10003600FCFFFEFD22E933E8330470F80202761273
:10004600024158046009E4CC248150062850090274
:10005600028028400302027DC0E0EB4A7044B9806A
:1000660006D0E0FB02026CEF4E701CBD8008EBFF71
:10007600EAFEE9FD80EBE98DF0A4FEE5F002010F52
:10008600E9CDF9EAFEEBFFEF89F0A4FCE5F0CE89B5
:10009600F0A42EFFE435F0CD89F0A42DFEE435F072
:1000A6008067EF4E7005BD80D780C3EF8BF0A4ACA0
:1000B600F0EE8BF0A42CFCE435F0F8EF8AF0A42CDB
:1000C600E5F038FCE433CB8DF0A42CFCE5F03BF8EE
:1000D600EE8AF0A42CFCE5F038F8E433CF89F0A4DE
:1000E6002CFCE5F038CF3400CE89F0A42FFFE5F0E4
:1000F6003EFEE433C98DF0A42EFEE5F039CD8AF03C
:10010600A42FFFE5F03EFEE43DFD33D0E0FB5007B3
:100116000BBB000F020280EC2CFCEF33FFEE33FE2C
:06012600ED33FD0202585A
:10012C00020280EC5D046005E8590470030202765B
:10013C00120241580460F6EC4860F2EC7004FDFECB
:10014C00FF22C860DB2481C85009C39860025006A6
:10015C0002027D9850CAF582E9294B4A7005AB82A0
:10016C0002026C75F0007C1A7880C3EF9BEE9AED5E
:10017C0099400DC3EF9BFFEE9AFEED99FDE842F01E
:10018C00DC23ACF0D0E0FFD0E0FED0E0FDAB822071
:10019C00E7101BEB60BAEC2CFCEF33FFEE33FEEDFB
:1001AC0033FD020258E803F830E705C0F075F000A3
:1001BC00EF2FFFEE33FEED33FD40B830E7C280AADF
:1001CC0075F020800E75F010800575F0087D007EAE
:1001DC00007F003392D530D50312058CEC334010E0
:1001EC00EF33FFEE33FEED33FDEC33FCD5F0ED22B7
:0E01FC00E5F0247EA2D513CC92E7CDCEFF22F3
:10020A00EDD2E7CD33EC3392D524814006E4FFFEEC
:10021A00FDFC22FCE4CFCECDCC24E0501174FF804B
:10022A00EDC3CC13CCCD13CDCE13CECF13CF0470E8
:07023A00F030D5DE02058C57
:10024100E9D2E7C933E833F892D5EDD2E7CD33EC03
:0702510033FC5002B2D5227C
:10025800EC30E7100FBF000C0EBE00080DBD000407
:100268000BEB6014A2D5EB13FCED92E7FD2274FFB3
:10027800FCFDFEFF22E480F8A2D574FF13FC7D800C
:03028800E480EF20
:100E9D00021310E493A3F8E493A34003F68001F248
:100EAD0008DFF48029E493A3F85407240CC8C33356
:100EBD00C4540F4420C8834004F456800146F6DF25
:100ECD00E4800B010204081020408090137DE47E25
:100EDD00019360BCA3FF543F30E509541FFEE4931A
:100EED00A360010ECF54C025E060A840B8E493A3E1
:100EFD00FAE493A3F8E493A3C8C582C8CAC583CA0C
:100F0D00F0A3C8C582C8CAC583CADFE9DEE780BEC3
:0113A9000043
:10028B00E709F608DFFA8046E709F208DFFA803E55
:10029B0088828C83E709F0A3DFFA8032E309F60842
:1002AB00DFFA8078E309F208DFFA807088828C83AA
:1002BB00E309F0A3DFFA806489828A83E0A3F6085E
:1002CB00DFFA805889828A83E0A3F208DFFA804C38
:1002DB0080D280FA80C680D4806980F2803380100F
:1002EB0080A680EA809A80A880DA80E280CA803378
:1002FB0089828A83ECFAE493A3C8C582C8CCC583F0
:10030B00CCF0A3C8C582C8CCC583CCDFE9DEE780BF
:10031B000D89828A83E493A3F608DFF9ECFAA9F03E
:10032B00EDFB2289828A83ECFAE0A3C8C582C8CC94
:10033B00C583CCF0A3C8C582C8CCC583CCDFEADEAD
:10034B00E880DB89828A83E493A3F208DFF980CC0F
:10035B0088F0EF60010E4E60C388F0ED2402B40408
:10036B000050B9F582EB2402B4040050AF232345AF
:06037B0082239002DB73F7
:10038100BB010689828A83E0225002E722BBFE027A
:09039100E32289828A83E49322AD
:10039A00BB010CE58229F582E5833AF583E0225018
:1003AA0006E92582F8E622BBFE06E92582F8E22262
:0D03BA00E58229F582E5833AF583E493227C
:1003C700BB010689828A83F0225002F722BBFE0115
:0203D700F3220F
:1003D900F8BB010DE58229F582E5833AF583E8F05A
:1003E900225006E92582C8F622BBFE05E92582C806
:0203F900F222EE
:1003FB00EF8DF0A4A8F0CF8CF0A428CE8DF0A42E16
:02040B00FE22CF
:10040D00BC000BBE0029EF8DF084FFADF022E4CCD3
:10041D00F875F008EF2FFFEE33FEEC33FCEE9DEC9C
:10042D00984005FCEE9DFE0FD5F0E9E4CEFD22EDE2
:10043D00F8F5F0EE8420D21CFEADF075F008EF2F2C
:10044D00FFED33FD4007985006D5F0F222C398FD1D
:05045D000FD5F0EA22BA
:10046200E88FF0A4CC8BF0A42CFCE98EF0A42CFC39
:100472008AF0EDA42CFCEA8EF0A4CDA8F08BF0A4B7
:100482002DCC3825F0FDE98FF0A42CCD35F0FCEB16
:100492008EF0A4FEA9F0EB8FF0A4CFC5F02ECD39DB
:0F04A200FEE43CFCEAA42DCE35F0FDE43CFC2248
:1004B10075F008758200EF2FFFEE33FECD33CDCC02
:1004C10033CCC58233C5829BED9AEC99E582984085
:1004D1000CF582EE9BFEED9AFDEC99FC0FD5F0D662
:1004E100E4CEFBE4CDFAE4CCF9A88222B800C1B98C
:1004F1000059BA002DEC8BF084CFCECDFCE5F0CBCA
:10050100F97818EF2FFFEE33FEED33FDEC33FCEB02
:1005110033FB10D703994004EB99FB0FD8E5E4F9BD
:10052100FA227818EF2FFFEE33FEED33FDEC33FCAA
:10053100C933C910D7059BE99A4007EC9BFCE99A9E
:10054100F90FD8E0E4C9FAE4CCFB2275F010EF2FE3
:10055100FFEE33FEED33FDCC33CCC833C810D707E3
:100561009BEC9AE899400AED9BFDEC9AFCE899F81E
:0E0571000FD5F0DAE4CDFBE4CCFAE4C8F922B1
:0D057F00CFF4CFCEF4CECDF4CDCCF4CC2211
:0E058C00C3E49FFFE49EFEE49DFDE49CFC2280
:10059A00EB9FF5F0EA9E42F0E99D42F0E89C45F0B7
:0105AA00222E
:1005AB00E8600FECC313FCED13FDEE13FEEF13FF2E
:0305BB00D8F12252
:1005BE00E8600FEFC333FFEE33FEED33FDEC33FC9B
:0305CE00D8F1223F
:1005D100BB010DE58229F582E5833AF58302066DBB
:1005E1005007E92582F8020661BBFE07E92582F87A
:1005F100020679E58229F582E5833AF583020685CB
:10060100BB010DE58229F582E5833AF583020655A2
:100611005007E92582F80206CBBBFE07E92582F8DF
:040621000206D722D4
:10062500BB010DE58229F582E5833AF5830206A231
:100635005007E92582F8020695BBFE07E92582F8F1
:100645000206AEE58229F582E5833AF5830206BB0B
:0C065500ECF0A3EDF0A3EEF0A3EFF02218
:0C066100E6FC08E6FD08E6FE08E6FF22C5
:0C066D00E0FCA3E0FDA3E0FEA3E0FF2200
:0C067900E2FC08E2FD08E2FE08E2FF22BD
:10068500E493FC740193FD740293FE740393FF22BB
:0D069500E6FB08E6F908E6FA08E6CBF822D5
:0C06A200E0F8A3E0F9A3E0FAA3E0FB22DB
:0D06AE00E2FB08E2F908E2FA08E2CBF822CC
:1006BB00E493F8740193F9740293FA740393FB2295
:0C06CB00ECF608EDF608EEF608EFF6225B
:0C06D700ECF208EDF208EEF208EFF2225F
:00000001FF
